:100000000C9446000C9465000C9465000C946500FB
:100010000C9465000C9465000C9465000C946500CC
:100020000C9465000C9465000C9465000C946500BC
:100030000C9465000C94DE000C9465000C94650033
:100040000C9465000C9465000C9465000C9465009C
:100050000C9465000C9465000C9465000C9465008C
:100060000C9465000C9465000C9465000C9465007C
:100070000C9465000C9465000C9465000C9465006C
:100080000C9465000C9465000C94650011241FBE4F
:10009000CFEFD0E4DEBFCDBF11E0A0E0B1E0EAE0F9
:1000A000F8E000E00BBF02C007900D92A431B10749
:1000B000D9F721E0A4E1B1E001C01D92AD34B2074F
:1000C000E1F70E9479020C9403040C940000CF9392
:1000D000DF9300D01F92CDB7DEB789837B836A831D
:1000E00089818A3031F48A819B81BC018DE00E9434
:1000F000670080EC90E0FC018081882F90E08072A6
:100100009927892BB1F386EC90E02981FC012083AB
:1001100080E090E00F900F900F90DF91CF910895C5
:10012000CF93DF93CDB7DEB781E890E02BE0FC0101
:10013000208388E890E02DE730E0FC0131832083C4
:100140008FE690E022E0FC01208384E890E0FC014F
:100150001182108280910E0190910F01A0911001E7
:10016000B09111018093150190931601A09317018E
:10017000B09318018FE590E02FE530E0F901208180
:100180002068FC0120830000DF91CF910895CF9378
:10019000DF93CDB7DEB781E890E0FC01108200006C
:1001A000DF91CF910895CF93DF93CDB7DEB781E094
:1001B000809314010000DF91CF9108951F920F9258
:1001C00000905F000F92112400905B000F922F931C
:1001D0003F934F935F936F937F938F939F93AF93CF
:1001E000BF93EF93FF93CF93DF93CDB7DEB78091AB
:1001F000150190911601A0911701B0911801019776
:10020000A109B1098093150190931601A0931701DC
:10021000B09318018091150190911601A0911701DA
:10022000B0911801892B8A2B8B2B91F40E94D3005B
:1002300080910E0190910F01A0911001B0911101D8
:100240008093150190931601A0931701B0931801A4
:100250000000DF91CF91FF91EF91BF91AF919F91FE
:100260008F917F916F915F914F913F912F910F905F
:1002700000925B000F9000925F000F901F90189506
:10028000CF93DF9300D000D0CDB7DEB769837A83F8
:100290008B839C8389819A81AB81BC8180930E0181
:1002A00090930F01A0931001B093110180910E0162
:1002B00090910F01A0911001B0911101809315014F
:1002C00090931601A0931701B093180100000F90AE
:1002D0000F900F900F90DF91CF910895CF93DF9300
:1002E00000D0CDB7DEB79A83898389819A81009740
:1002F00019F0019749F00DC081E090E09A8389835D
:1003000081E08093260108C081E090E09A83898390
:1003100003C01A821982000089819A810097D9F05E
:10032000019709F01BC080912601813021F482E001
:100330008093260112C080912601823021F484E04E
:10034000809326010AC080912601843031F481E037
:100350008093260102C0000001C0000089819A81BB
:100360000F900F90DF91CF910895CF93DF9300D03E
:10037000CDB7DEB79A83898389819A81009719F076
:10038000019741F00BC01092400181E090E09A8308
:10039000898305C081E090E09A8389830000898188
:1003A0009A81009771F0019709F00CC0809140018B
:1003B000882321F488E08093400104C0109240011A
:1003C00001C0000089819A810F900F90DF91CF9139
:1003D0000895CF93DF9300D0CDB7DEB79A8389839A
:1003E00089819A818130910549F08230910559F0D7
:1003F000892B71F481E0809327010DC082E090E0A9
:100400009A83898308C081E090E09A83898303C03E
:100410001A821982000089819A818130910531F018
:100420008230910559F0892B61F00EC08091250131
:10043000882349F080E18093270105C010922701AD
:1004400003C0000001C0000089819A810F900F90C5
:10045000DF91CF910895CF93DF9300D0CDB7DEB772
:100460009A83898389819A81009719F0019731F0E5
:100470000AC081E090E09A83898308C081E090E01F
:100480009A83898303C01A821982000089819A8124
:10049000009739F1019709F025C080912501882343
:1004A000B1F085E290E03091260120914001232BAC
:1004B000422F20912701222F30E022953295307F64
:1004C0003227207F3227242BFC0120830BC085E2BA
:1004D00090E03091260120914001232BFC012083E4
:1004E00001C0000089819A810F900F90DF91CF9118
:1004F0000895CF93DF93CDB7DEB781E290E0FC01A2
:10050000108282E290E02FEFFC01208384E290E0F1
:100510002FEFFC01208385E290E0FC011082109215
:1005200029011092280188EE93E0A0E0B0E08093CA
:100530002A0190932B01A0932C01B0932D011092CE
:100540002E0110922F01109230011092310185EB93
:1005500091E0909333018093320110923501109213
:1005600034018CE291E0A0E0B0E0809336019093FA
:100570003701A0933801B093390110923A011092DB
:100580003B0110923C0110923D018EE691E0909368
:100590003F0180933E0110921A011092190182E0EE
:1005A00090E0A0E0B0E080931B0190931C01A09329
:1005B0001D01B0931E0110921F0110922001109294
:1005C00021011092220189EE91E090932401809301
:1005D0002301109242011092410182E090E0A0E0DC
:1005E000B0E08093430190934401A0934501B09300
:1005F0004601109247011092480110924901109251
:100600004A018BE292E090934C0180934B0182E08F
:1006100090E0CC01A0E0B0E0BC01CD010E9440011F
:100620000E94900080E290E0FC018081882F90E0A1
:100630008170992721E0892B09F020E0822F809397
:10064000250120912E0130912F01409130015091D0
:10065000310180912A0190912B01A0912C01B09140
:100660002D01281739074A075B07B0F020913201A6
:10067000309133018091280190912901F901099568
:10068000909329018093280110922E0110922F013E
:10069000109230011092310120913A0130913B01CA
:1006A00040913C0150913D0180913601909137017C
:1006B000A0913801B0913901281739074A075B0723
:1006C000B0F020913E0130913F0180913401909132
:1006D0003501F90109959093350180933401109209
:1006E0003A0110923B0110923C0110923D01209181
:1006F0002301309124018091190190911A01F9018F
:10070000099590931A018093190120914701309126
:1007100048014091490150914A01809143019091D3
:100720004401A0914501B0914601281739074A07B5
:100730005B07B0F020914B0130914C018091410159
:1007400090914201F90109959093420180934101F2
:1007500010924701109248011092490110924A01EB
:100760000000809114018823E1F31092140120917C
:100770002E0130912F01409130015091310182E0E2
:1007800090E0CC01A0E0B0E0820F931FA41FB51F42
:1007900080932E0190932F01A0933001B0933101EB
:1007A00020913A0130913B0140913C0150913D0133
:1007B00082E090E0CC01A0E0B0E0820F931FA41F84
:1007C000B51F80933A0190933B01A0933C01B093F5
:1007D0003D012091470130914801409149015091DC
:1007E0004A0182E090E0CC01A0E0B0E0820F931FCC
:1007F000A41FB51F8093470190934801A09349011E
:0A080000B0934A010FCFF894FFCF28
:10080A000000000200000000670000000000010074
:04081A0000000200D8
:00000001FF
