:100000000C9446000C9465000C9465000C946500FB
:100010000C9465000C9465000C9465000C946500CC
:100020000C9465000C9465000C9465000C946500BC
:100030000C9465000C9493010C9465000C9465007D
:100040000C9465000C9465000C9465000C9465009C
:100050000C9465000C9465000C9465000C9465008C
:100060000C9465000C9465000C9465000C9465007C
:100070000C9465000C9465000C9465000C9465006C
:100080000C9465000C9465000C94650011241FBE4F
:10009000CFEFD0E4DEBFCDBF11E0A0E0B1E0E6EDF0
:1000A000FBE000E00BBF02C007900D92A631B10744
:1000B000D9F721E0A6E1B1E001C01D92A135B20758
:1000C000E1F70E9426040C94E9050C940000CF93FC
:1000D000DF9300D01F92CDB7DEB789837B836A831D
:1000E00089818A3031F48A819B81BC018DE00E9434
:1000F000670080EC90E0FC018081882F90E08072A6
:100100009927892BB1F386EC90E02981FC012083AB
:1001100080E090E00F900F900F90DF91CF910895C5
:10012000CF93DF93CDB7DEB781E890E02BE0FC0101
:10013000208388E890E02DE730E0FC0131832083C4
:100140008FE690E022E0FC01208384E890E0FC014F
:100150001182108280910E0190910F01A0911001E7
:10016000B09111018093170190931801A093190188
:10017000B0931A018FE590E02FE530E0F90120817E
:100180002068FC0120830000DF91CF910895CF9378
:10019000DF93CDB7DEB781E890E0FC01108200006C
:1001A000DF91CF9108950F931F93CF93DF931F9209
:1001B000CDB7DEB71982A7C08981282F30E0C901E9
:1001C000880F991F820F931F880F991F880F991FFF
:1001D0008D5D9E4FFC012081318142815381898157
:1001E000682F70E0CB01880F991F860F971F880F2B
:1001F000991F880F991F815E9E4FFC01808191811C
:10020000A281B381281739074A075B0708F449C060
:100210008981082F10E08981282F30E0C901880FDB
:10022000991F820F931F880F991F880F991F895D4F
:100230009E4FFC01408151818981282F30E0C90106
:10024000880F991F820F931F880F991F880F991F7E
:10025000835E9E4FFC0180819181FA0109959C018A
:10026000C801880F991F800F911F880F991F880F51
:10027000991F835E9E4FFC01318320838981282F43
:1002800030E0C901880F991F820F931F880F991FB3
:10029000880F991F8D5D9E4FFC0110821182128282
:1002A00013828981682F70E08981282F30E0C9018D
:1002B000880F991F820F931F880F991F880F991F0E
:1002C0008D5D9E4FFC01208131814281538181E00F
:1002D00090E0CC01A0E0B0E0280F391F4A1F5B1F5F
:1002E000CB01880F991F860F971F880F991F880FC2
:1002F000991F8D5D9E4FFC01208331834283538380
:1003000089818F5F89838981282F30E084E090E0A4
:100310002817390708F450CF00000F90DF91CF91D4
:100320001F910F9108951F920F9200905F000F92FE
:10033000112400905B000F922F933F934F935F9394
:100340006F937F938F939F93AF93BF93EF93FF939D
:10035000CF93DF93CDB7DEB780911701909118014D
:10036000A0911901B0911A010197A109B1098093D7
:10037000170190931801A0931901B0931A0180916D
:10038000170190911801A0911901B0911A01892BC0
:100390008A2B8B2B91F40E94D30080910E019091B7
:1003A0000F01A0911001B09111018093170190935A
:1003B0001801A0931901B0931A010000DF91CF91A9
:1003C000FF91EF91BF91AF919F918F917F916F912D
:1003D0005F914F913F912F910F9000925B000F9092
:1003E00000925F000F901F901895CF93DF9300D07D
:1003F00000D0CDB7DEB769837A838B839C838981F4
:100400009A81AB81BC8180930E0190930F01A093E0
:100410001001B093110180910E0190910F01A091F4
:100420001001B09111018093170190931801A093CE
:100430001901B0931A0100000F900F900F900F90C8
:10044000DF91CF910895CF93DF9300D0CDB7DEB782
:100450009A83898389819A81009719F0019749F0DD
:100460000DC081E090E09A83898381E080934E0102
:1004700008C081E090E09A83898303C01A821982C0
:10048000000089819A810097D9F0019709F01BC07B
:1004900080914E01813021F482E080934E0112C0A0
:1004A00080914E01823021F484E080934E010AC095
:1004B00080914E01843031F481E080934E0102C07E
:1004C000000001C0000089819A810F900F90DF9198
:1004D000CF910895CF93DF9300D0CDB7DEB79A8345
:1004E000898389819A81009719F0019741F00CC0A6
:1004F0001092500181E090E09A83898305C081E0E9
:1005000090E09A838983000089819A81009771F035
:10051000019709F00CC080915001882321F488E0F4
:100520008093500104C01092500101C000008981E5
:100530009A810F900F90DF91CF910895CF93DF9321
:1005400000D0CDB7DEB79A83898389819A818130C3
:10055000910589F0823091051CF4892B39F035C062
:1005600082309105B1F0039711F12FC081E090E046
:100570009A8389832DC080914F01882329F082E0DE
:1005800090E09A83898324C081E090E09A838983F4
:100590001FC080914F01882329F481E090E09A8365
:1005A000898316C083E090E09A83898311C080918B
:1005B0004F01882329F481E090E09A83898308C061
:1005C00082E090E09A83898303C01A821982000036
:1005D00089819A818130910579F08230910524F4E6
:1005E000892B09F4E0C0E6C08230910509F44CC0C3
:1005F000039709F492C0DEC010921B0180914D0157
:10060000882F90E0837099270297A1F48091370199
:1006100090913801A0913901B0913A010196A11D44
:10062000B11D8093370190933801A0933901B093A5
:100630003A01BBC080914D01882F90E083709927CB
:10064000019709F0B2C08091370190913801A091D3
:100650003901B0913A010297A105B10508F4A5C08E
:100660008091370190913801A0913901B0913A0100
:100670000197A109B1098093370190933801A093A4
:100680003901B0933A0191C080E180931B018091C0
:100690004D01882F90E0837099270297A1F48091F3
:1006A000370190913801A0913901B0913A0101963A
:1006B000A11DB11D8093370190933801A09339019A
:1006C000B0933A0174C080914D01882F90E08370FF
:1006D0009927019709F06BC08091370190913801FB
:1006E000A0913901B0913A010297A105B10508F432
:1006F0005EC08091370190913801A0913901B0918D
:100700003A010197A109B10980933701909338010B
:10071000A0933901B0933A014AC010921B01809115
:100720004D01882F90E0837099270297A1F4809162
:10073000370190913801A0913901B0913A010196A9
:10074000A11DB11D8093370190933801A093390109
:10075000B0933A012EC080914D01882F90E08370B4
:100760009927019731F58091370190913801A09137
:100770003901B0913A010297A105B105D0F08091FD
:10078000370190913801A0913901B0913A01019758
:10079000A109B1098093370190933801A0933901E1
:1007A000B0933A0106C0000005C0000003C000007D
:1007B00001C0000089819A810F900F90DF91CF9145
:1007C0000895CF93DF9300D0CDB7DEB79A838983A6
:1007D00089819A81009719F0019731F00AC081E070
:1007E00090E09A83898308C081E090E09A838983AE
:1007F00003C01A821982000089819A810097F1F062
:10080000019709F01CC080914F01882369F085E2AF
:1008100090E030914E0120915001322B20911B012C
:10082000232BFC0120830BC085E290E030914E0128
:1008300020915001232BFC01208301C000008981FD
:100840009A810F900F90DF91CF910895CF93DF930E
:100850001F92CDB7DEB781E290E0FC01108282E208
:1008600090E02FEFFC01208384E290E02FEFFC0169
:10087000208385E290E0FC01108219828981282F73
:1008800030E0C901880F991F820F931F880F991FAD
:10089000880F991F835E9E4FFC011182108289810F
:1008A000282F30E0C901880F991F820F931F880FEE
:1008B000991F880F991F9C01215E3E4F88EE93E09F
:1008C000A0E0B0E0F90180839183A283B3838981A2
:1008D000682F70E08981282F30E0C901880F991FA7
:1008E000820F931F880F991F880F991F815E9E4F5B
:1008F000FC012081318142815381CB01880F991FF6
:10090000860F971F880F991F880F991F8D5D9E4F27
:10091000FC0120833183428353838981282F30E077
:10092000C901880F991F820F931F880F991F880F85
:10093000991F895D9E4F2AE632E0FC0131832083B6
:1009400089818F5F89838981282F30E0C901880FD1
:10095000991F820F931F880F991F880F991F835E1D
:100960009E4FFC01118210828981282F30E0C9013D
:10097000880F991F820F931F880F991F880F991F47
:100980009C01215E3E4F8CE291E0A0E0B0E0F901D5
:1009900080839183A283B3838981682F70E08981EA
:1009A000282F30E0C901880F991F820F931F880FED
:1009B000991F880F991F815E9E4FFC012081318114
:1009C00042815381CB01880F991F860F971F880F93
:1009D000991F880F991F8D5D9E4FFC0120833183E5
:1009E000428353838981282F30E0C901880F991FE2
:1009F000820F931F880F991F880F991F895D9E4F43
:100A000023E232E0FC013183208389818F5F898377
:100A10008981282F30E0C901880F991F820F931F09
:100A2000880F991F880F991F835E9E4FFC011182CA
:100A300010828981282F30E0C901880F991F820F09
:100A4000931F880F991F880F991F9C01215E3E4FAD
:100A500081E090E0A0E0B0E0F90180839183A2837F
:100A6000B3838981682F70E08981282F30E0C90124
:100A7000880F991F820F931F880F991F880F991F46
:100A8000815E9E4FFC012081318142815381CB01E7
:100A9000880F991F860F971F880F991F880F991F1E
:100AA0008D5D9E4FFC012083318342835383898176
:100AB000282F30E0C901880F991F820F931F880FDC
:100AC000991F880F991F895D9E4F2EE932E0FC0126
:100AD0003183208389818F5F89838981282F30E04A
:100AE000C901880F991F820F931F880F991F880FC4
:100AF000991F835E9E4FFC01118210828981282FED
:100B000030E0C901880F991F820F931F880F991F2A
:100B1000880F991F9C01215E3E4F81E090E0A0E08C
:100B2000B0E0F90180839183A283B3838981682F28
:100B300070E08981282F30E0C901880F991F820F4A
:100B4000931F880F991F880F991F815E9E4FFC018C
:100B50002081318142815381CB01880F991F860FFB
:100B6000971F880F991F880F991F8D5D9E4FFC015D
:100B700020833183428353838981282F30E0C90148
:100B8000880F991F820F931F880F991F880F991F35
:100B9000895D9E4F21EE33E0FC013183208381E0AB
:100BA00090E0CC01A0E0B0E0BC01CD010E94F501D5
:100BB0000E94900080E290E0FC0180818095877027
:100BC00080934D0180914D018695869580934F01CC
:060BD000F1CFF894FFCF05
:100BD60000000002000000006700000000000100A5
:060BE60000000400010004
:00000001FF
