:100000000C9446000C9465000C9465000C946500FB
:100010000C9465000C9465000C9465000C946500CC
:100020000C9465000C9465000C9465000C946500BC
:100030000C9465000C94DE000C9465000C94650033
:100040000C9465000C9465000C9465000C9465009C
:100050000C9465000C9465000C9465000C9465008C
:100060000C9465000C9465000C9465000C9465007C
:100070000C9465000C9465000C9465000C9465006C
:100080000C9465000C9465000C94650011241FBE4F
:10009000CFEFD0E4DEBFCDBF11E0A0E0B1E0EAECED
:1000A000F6E000E00BBF02C007900D92A431B1074B
:1000B000D9F721E0A4E1B1E001C01D92AF33B2074E
:1000C000E1F70E941D020C9463030C940000CF938F
:1000D000DF9300D01F92CDB7DEB789837B836A831D
:1000E00089818A3031F48A819B81BC018DE00E9434
:1000F000670080EC90E0FC018081882F90E08072A6
:100100009927892BB1F386EC90E02981FC012083AB
:1001100080E090E00F900F900F90DF91CF910895C5
:10012000CF93DF93CDB7DEB781E890E02BE0FC0101
:10013000208388E890E02DE730E0FC0131832083C4
:100140008FE690E022E0FC01208384E890E0FC014F
:100150001182108280910E0190910F01A0911001E7
:10016000B09111018093150190931601A09317018E
:10017000B09318018FE590E02FE530E0F901208180
:100180002068FC0120830000DF91CF910895CF9378
:10019000DF93CDB7DEB781E890E0FC01108200006C
:1001A000DF91CF910895CF93DF93CDB7DEB781E094
:1001B000809314010000DF91CF9108951F920F9258
:1001C00000905F000F92112400905B000F922F931C
:1001D0003F934F935F936F937F938F939F93AF93CF
:1001E000BF93EF93FF93CF93DF93CDB7DEB78091AB
:1001F000150190911601A0911701B0911801019776
:10020000A109B1098093150190931601A0931701DC
:10021000B09318018091150190911601A0911701DA
:10022000B0911801892B8A2B8B2B91F40E94D3005B
:1002300080910E0190910F01A0911001B0911101D8
:100240008093150190931601A0931701B0931801A4
:100250000000DF91CF91FF91EF91BF91AF919F91FE
:100260008F917F916F915F914F913F912F910F905F
:1002700000925B000F9000925F000F901F90189506
:10028000CF93DF9300D000D0CDB7DEB769837A83F8
:100290008B839C8389819A81AB81BC8180930E0181
:1002A00090930F01A0931001B093110180910E0162
:1002B00090910F01A0911001B0911101809315014F
:1002C00090931601A0931701B093180100000F90AE
:1002D0000F900F900F90DF91CF910895CF93DF9300
:1002E00000D0CDB7DEB79A83898389819A81009740
:1002F00019F0019749F00DC081E090E09A8389835D
:1003000081E08093190108C081E090E09A8389839D
:1003100003C01A821982000089819A810097D9F05E
:10032000019709F01BC080911901813021F482E00E
:100330008093190112C080911901823021F484E068
:10034000809319010AC080911901843031F481E051
:100350008093190102C0000001C0000089819A81C8
:100360000F900F90DF91CF910895CF93DF9300D03E
:10037000CDB7DEB79A83898389819A81009719F076
:10038000019741F00BC01092320181E090E09A8316
:10039000898305C081E090E09A8389830000898188
:1003A0009A81009771F0019709F00CC08091320199
:1003B000882321F488E08093320104C01092320136
:1003C00001C0000089819A810F900F90DF91CF9139
:1003D0000895CF93DF9300D0CDB7DEB79A8389839A
:1003E00089819A81009719F0019731F00AC081E064
:1003F00090E09A83898308C081E090E09A838983A2
:1004000003C01A821982000089819A81009769F0DD
:10041000019709F00BC085E290E03091190120911D
:100420003201232BFC01208301C0000089819A81C5
:100430000F900F90DF91CF910895CF93DF93CDB7B9
:10044000DEB784E290E02FEFFC01208385E290E0AC
:10045000FC01108210921B0110921A0188EE93E0A9
:10046000A0E0B0E080931C0190931D01A0931E01B9
:10047000B0931F01109220011092210110922201CD
:100480001092230185EB91E0909325018093240144
:1004900010922701109226018CE291E0A0E0B0E0DA
:1004A0008093280190932901A0932A01B0932B01F6
:1004B00010922C0110922D0110922E0110922F01FA
:1004C0008EE691E0909331018093300110923401D7
:1004D000109233018CE291E0A0E0B0E0809335010E
:1004E00090933601A0933701B093380110923901EF
:1004F00010923A0110923B0110923C0189EE91E07A
:1005000090933E0180933D018CE291E0CC01A0E00C
:10051000B0E0BC01CD010E9440010E9490002091FA
:1005200020013091210140912201509123018091BD
:100530001C0190911D01A0911E01B0911F0128176F
:1005400039074A075B07B0F020912401309125015B
:1005500080911A0190911B01F901099590931B015B
:1005600080931A0110922001109221011092220111
:100570001092230120912C0130912D0140912E01E8
:1005800050912F018091280190912901A0912A0179
:10059000B0912B01281739074A075B07B0F020916B
:1005A0003001309131018091260190912701F901AC
:1005B0000995909327018093260110922C011092A7
:1005C0002D0110922E0110922F01209139013091AE
:1005D0003A0140913B0150913C018091350190914D
:1005E0003601A0913701B0913801281739074A0721
:1005F0005B07B0F020913D0130913E0180913301C5
:1006000090913401F901099590933401809333015D
:100610001092390110923A0110923B0110923C0164
:100620000000809114018823E1F3109214012091BD
:1006300020013091210140912201509123018CE24F
:1006400091E0CC01A0E0B0E0820F931FA41FB51F82
:100650008093200190932101A0932201B093230164
:1006600020912C0130912D0140912E0150912F01AC
:100670008CE291E0CC01A0E0B0E0820F931FA41FB8
:10068000B51F80932C0190932D01A0932E01B09360
:100690002F012091390130913A0140913B01509155
:1006A0003C018CE291E0CC01A0E0B0E0820F931F0E
:1006B000A41FB51F8093390190933A01A0933B0189
:0A06C000B0933C012CCFF894FFCF5B
:1006CA0000000002000000006700000000000100B6
:0406DA0000002C01EF
:00000001FF
