:100000000C9446000C9465000C9465000C946500FB
:100010000C9465000C9465000C9465000C946500CC
:100020000C9465000C9465000C9465000C946500BC
:100030000C9465000C94DE000C9465000C94650033
:100040000C9465000C9465000C9465000C9465009C
:100050000C9465000C9465000C9465000C9465008C
:100060000C9465000C9465000C9465000C9465007C
:100070000C9465000C9465000C9465000C9465006C
:100080000C9465000C9465000C94650011241FBE4F
:10009000CFEFD0E4DEBFCDBF11E0A0E0B1E0E8EAF1
:1000A000F9E000E00BBF02C007900D92A631B10746
:1000B000D9F721E0A6E1B1E001C01D92AF34B2074B
:1000C000E1F70E9479020C94D2040C940000CF93C3
:1000D000DF9300D01F92CDB7DEB789837B836A831D
:1000E00089818A3031F48A819B81BC018DE00E9434
:1000F000670080EC90E0FC018081882F90E08072A6
:100100009927892BB1F386EC90E02981FC012083AB
:1001100080E090E00F900F900F90DF91CF910895C5
:10012000CF93DF93CDB7DEB781E890E02BE0FC0101
:10013000208388E890E02DE730E0FC0131832083C4
:100140008FE690E022E0FC01208384E890E0FC014F
:100150001182108280910E0190910F01A0911001E7
:10016000B09111018093170190931801A093190188
:10017000B0931A018FE590E02FE530E0F90120817E
:100180002068FC0120830000DF91CF910895CF9378
:10019000DF93CDB7DEB781E890E0FC01108200006C
:1001A000DF91CF910895CF93DF93CDB7DEB781E094
:1001B000809316010000DF91CF9108951F920F9256
:1001C00000905F000F92112400905B000F922F931C
:1001D0003F934F935F936F937F938F939F93AF93CF
:1001E000BF93EF93FF93CF93DF93CDB7DEB78091AB
:1001F000170190911801A0911901B0911A0101976E
:10020000A109B1098093170190931801A0931901D6
:10021000B0931A018091170190911801A0911901D2
:10022000B0911A01892B8A2B8B2B91F40E94D30059
:1002300080910E0190910F01A0911001B0911101D8
:100240008093170190931801A0931901B0931A019C
:100250000000DF91CF91FF91EF91BF91AF919F91FE
:100260008F917F916F915F914F913F912F910F905F
:1002700000925B000F9000925F000F901F90189506
:10028000CF93DF9300D000D0CDB7DEB769837A83F8
:100290008B839C8389819A81AB81BC8180930E0181
:1002A00090930F01A0931001B093110180910E0162
:1002B00090910F01A0911001B0911101809317014D
:1002C00090931801A0931901B0931A0100000F90A8
:1002D0000F900F900F90DF91CF910895CF93DF9300
:1002E00000D0CDB7DEB79A83898389819A81009740
:1002F00019F0019749F00DC081E090E09A8389835D
:1003000081E080934C0108C081E090E09A8389836A
:1003100003C01A821982000089819A810097D9F05E
:10032000019709F01BC080914C01813021F482E0DB
:1003300080934C0112C080914C01823021F484E002
:1003400080934C010AC080914C01843031F481E0EB
:1003500080934C0102C0000001C0000089819A8195
:100360000F900F90DF91CF910895CF93DF9300D03E
:10037000CDB7DEB79A83898389819A81009719F076
:10038000019741F00BC010924E0181E090E09A83FA
:10039000898305C081E090E09A8389830000898188
:1003A0009A81009771F0019709F00CC080914E017D
:1003B000882321F488E080934E0104C010924E01FE
:1003C00001C0000089819A810F900F90DF91CF9139
:1003D0000895CF93DF9300D0CDB7DEB79A8389839A
:1003E00089819A818130910549F08230910559F0D7
:1003F000892B71F481E080934D010DC082E090E083
:100400009A83898308C081E090E09A83898303C03E
:100410001A821982000089819A818130910531F018
:100420008230910559F0892B61F00EC080914B010B
:10043000882349F080E180934D0105C010924D0161
:1004400003C0000001C0000089819A810F900F90C5
:10045000DF91CF910895CF93DF9300D0CDB7DEB772
:100460009A83898389819A81009719F0019731F0E5
:100470000AC081E090E09A83898308C081E090E01F
:100480009A83898303C01A821982000089819A8124
:10049000009739F1019709F025C080914B0188231D
:1004A000B1F085E290E030914C0120914E01232B78
:1004B000422F20914D01222F30E022953295307F3E
:1004C0003227207F3227242BFC0120830BC085E2BA
:1004D00090E030914C0120914E01232BFC012083B0
:1004E00001C0000089819A810F900F90DF91CF9118
:1004F0000895CF93DF931F92CDB7DEB781E290E0EE
:10050000FC01108282E290E02FEFFC01208384E264
:1005100090E02FEFFC01208385E290E0FC01108247
:1005200019828981282F30E0C901880F991F820F15
:10053000931F880F991F880F991F855E9E4FFC019E
:10054000118210828981282F30E0C901880F991FFC
:10055000820F931F880F991F880F991F9C01235E9C
:100560003E4F88EE93E0A0E0B0E0F90180839183F4
:10057000A283B3838981282F30E0C901880F991F96
:10058000820F931F880F991F880F991F8F5D9E4FB1
:10059000FC0110821182128213828981282F30E09F
:1005A000C901880F991F820F931F880F991F880F09
:1005B000991F8B5D9E4F25EB31E0FC013183208339
:1005C00089818F5F89838981282F30E0C901880F55
:1005D000991F820F931F880F991F880F991F855E9F
:1005E0009E4FFC01118210828981282F30E0C901C1
:1005F000880F991F820F931F880F991F880F991FCB
:100600009C01235E3E4F8CE291E0A0E0B0E0F90156
:1006100080839183A283B3838981282F30E0C9012D
:10062000880F991F820F931F880F991F880F991F9A
:100630008F5D9E4FFC01108211821282138289818C
:10064000282F30E0C901880F991F820F931F880F50
:10065000991F880F991F8B5D9E4F2EE631E0FC019C
:100660003183208389818F5F89838981282F30E0BE
:10067000C901880F991F820F931F880F991F880F38
:10068000991F855E9E4FFC01118210828981282F5F
:1006900030E0C901880F991F820F931F880F991F9F
:1006A000880F991F9C01235E3E4F82E090E0A0E0FE
:1006B000B0E0F90180839183A283B3838981282FDD
:1006C00030E0C901880F991F820F931F880F991F6F
:1006D000880F991F8F5D9E4FFC011082118212823C
:1006E00013828981282F30E0C901880F991F820F5A
:1006F000931F880F991F880F991F8B5D9E4F29EEBE
:1007000031E0FC013183208389818F5F8983898176
:10071000282F30E0C901880F991F820F931F880F7F
:10072000991F880F991F855E9E4FFC0111821082D0
:100730008981282F30E0C901880F991F820F931FEC
:10074000880F991F880F991F9C01235E3E4F82E0FE
:1007500090E0A0E0B0E0F90180839183A283B383AD
:100760008981282F30E0C901880F991F820F931FBC
:10077000880F991F880F991F8F5D9E4FFC01108273
:100780001182128213828981282F30E0C901880FDB
:10079000991F820F931F880F991F880F991F8B5DD8
:1007A0009E4F2BE232E0FC013183208382E090E017
:1007B000CC01A0E0B0E0BC01CD010E9440010E944C
:1007C000900080E290E0FC018081882F90E080958D
:1007D00090959595879595958795817080934B0118
:1007E0002091210130912201409123015091240157
:1007F00080911D0190911E01A0911F01B0912001D7
:10080000281739074A075B07B0F02091250130917E
:10081000260180911B0190911C01F901099590938B
:100820001C0180931B011092210110922201109251
:1008300023011092240120912D0130912E0140912D
:100840002F01509130018091290190912A01A091AE
:100850002B01B0912C01281739074A075B07B0F02C
:10086000209131013091320180912701909128012E
:10087000F9010995909328018093270110922D0189
:1008800010922E0110922F011092300120913D0103
:1008900030913E018091330190913401F901099525
:1008A00090933401809333012091450130914601AA
:1008B0004091470150914801809135019091360156
:1008C000A0913701B0913801281739074A075B0713
:1008D000B0F02091490130914A0180913F019091FF
:1008E0004001F90109959093400180933F011092D6
:1008F00045011092460110924701109248010000F4
:10090000809116018823E1F31092160120912101B4
:1009100030912201409123015091240182E090E026
:10092000CC01A0E0B0E0820F931FA41FB51F8093FD
:10093000210190932201A0932301B09324012091DF
:100940002D0130912E0140912F015091300182E014
:1009500090E0CC01A0E0B0E0820F931FA41FB51F70
:1009600080932D0190932E01A0932F01B09330011D
:100970002091450130914601409147015091480135
:1009800082E090E0CC01A0E0B0E0820F931FA41FB2
:10099000B51F8093450190934601A0934701B09302
:0809A00048010FCFF894FFCFCE
:1009A80000000002000000006700000000000100D5
:0609B80000000400020033
:00000001FF
