:100000000C9446000C9465000C9465000C946500FB
:100010000C9465000C9465000C9465000C946500CC
:100020000C9465000C9465000C9465000C946500BC
:100030000C9465000C9493010C9465000C9465007D
:100040000C9465000C9465000C9465000C9465009C
:100050000C9465000C9465000C9465000C9465008C
:100060000C9465000C9465000C9465000C9465007C
:100070000C9465000C9465000C9465000C9465006C
:100080000C9465000C9465000C94650011241FBE4F
:10009000CFEFD0E4DEBFCDBF11E0A0E0B1E0EAE9F0
:1000A000FCE000E00BBF02C007900D92A631B10743
:1000B000D9F721E0A6E1B1E001C01D92AE35B2074B
:1000C000E1F70E941E040C944B060C940000CF93A1
:1000D000DF9300D01F92CDB7DEB789837B836A831D
:1000E00089818A3031F48A819B81BC018DE00E9434
:1000F000670080EC90E0FC018081882F90E08072A6
:100100009927892BB1F386EC90E02981FC012083AB
:1001100080E090E00F900F900F90DF91CF910895C5
:10012000CF93DF93CDB7DEB781E890E02BE0FC0101
:10013000208388E890E02DE730E0FC0131832083C4
:100140008FE690E022E0FC01208384E890E0FC014F
:100150001182108280910E0190910F01A0911001E7
:10016000B09111018093170190931801A093190188
:10017000B0931A018FE590E02FE530E0F90120817E
:100180002068FC0120830000DF91CF910895CF9378
:10019000DF93CDB7DEB781E890E0FC01108200006C
:1001A000DF91CF9108950F931F93CF93DF931F9209
:1001B000CDB7DEB71982A7C08981282F30E0C901E9
:1001C000880F991F820F931F880F991F880F991FFF
:1001D0008C5D9E4FFC012081318142815381898158
:1001E000682F70E0CB01880F991F860F971F880F2B
:1001F000991F880F991F805E9E4FFC01808191811D
:10020000A281B381281739074A075B0708F449C060
:100210008981082F10E08981282F30E0C901880FDB
:10022000991F820F931F880F991F880F991F885D50
:100230009E4FFC01408151818981282F30E0C90106
:10024000880F991F820F931F880F991F880F991F7E
:10025000825E9E4FFC0180819181FA0109959C018B
:10026000C801880F991F800F911F880F991F880F51
:10027000991F825E9E4FFC01318320838981282F44
:1002800030E0C901880F991F820F931F880F991FB3
:10029000880F991F8C5D9E4FFC0110821182128283
:1002A00013828981682F70E08981282F30E0C9018D
:1002B000880F991F820F931F880F991F880F991F0E
:1002C0008C5D9E4FFC01208131814281538181E010
:1002D00090E0CC01A0E0B0E0280F391F4A1F5B1F5F
:1002E000CB01880F991F860F971F880F991F880FC2
:1002F000991F8C5D9E4FFC01208331834283538381
:1003000089818F5F89838981282F30E085E090E0A3
:100310002817390708F450CF00000F90DF91CF91D4
:100320001F910F9108951F920F9200905F000F92FE
:10033000112400905B000F922F933F934F935F9394
:100340006F937F938F939F93AF93BF93EF93FF939D
:10035000CF93DF93CDB7DEB780911701909118014D
:10036000A0911901B0911A010197A109B1098093D7
:10037000170190931801A0931901B0931A0180916D
:10038000170190911801A0911901B0911A01892BC0
:100390008A2B8B2B91F40E94D30080910E019091B7
:1003A0000F01A0911001B09111018093170190935A
:1003B0001801A0931901B0931A010000DF91CF91A9
:1003C000FF91EF91BF91AF919F918F917F916F912D
:1003D0005F914F913F912F910F9000925B000F9092
:1003E00000925F000F901F901895CF93DF9300D07D
:1003F00000D0CDB7DEB769837A838B839C838981F4
:100400009A81AB81BC8180930E0190930F01A093E0
:100410001001B093110180910E0190910F01A091F4
:100420001001B09111018093170190931801A093CE
:100430001901B0931A0100000F900F900F900F90C8
:10044000DF91CF910895CF93DF9300D0CDB7DEB782
:100450009A83898389819A81009719F0019749F0DD
:100460000DC081E090E09A83898381E080935B01F5
:1004700008C081E090E09A83898303C01A821982C0
:10048000000089819A810097D9F0019709F01BC07B
:1004900080915B01813021F482E080935B0112C086
:1004A00080915B01823021F484E080935B010AC07B
:1004B00080915B01843031F481E080935B0102C064
:1004C000000001C0000089819A810F900F90DF9198
:1004D000CF910895CF93DF9300D0CDB7DEB79A8345
:1004E000898389819A81009719F0019741F00BC0A7
:1004F00010925D0181E090E09A83898305C081E0DC
:1005000090E09A838983000089819A81009771F035
:10051000019709F00CC080915D01882321F488E0E7
:1005200080935D0104C010925D0101C000008981CB
:100530009A810F900F90DF91CF910895CF93DF9321
:1005400000D0CDB7DEB79A83898389819A818230C2
:100550009105B9F1833091052CF4009771F0019762
:1005600089F05DC08430910509F442C08430910562
:100570006CF1059709F441C052C081E090E09A8384
:10058000898350C080915A01882F90E08370992709
:10059000029729F481E090E09A83898343C0809197
:1005A0005A01882F90E083709927019729F484E0FD
:1005B00090E09A83898336C081E090E09A838983B2
:1005C00031C083E090E09A8389832CC080915A01E6
:1005D000882F90E083709927029729F483E090E0B8
:1005E0009A8389831FC081E090E09A8389831AC02F
:1005F00085E090E09A83898315C080915A01882F05
:1006000090E083709927019729F485E090E09A8320
:10061000898308C081E090E09A83898303C01A82AD
:100620001982000089819A818230910589F0833096
:1006300091052CF40097E1F00197E1F022C084309D
:10064000910561F084309105BCF00597B9F019C0AF
:1006500080911D018F5F80931D0113C080911D014A
:10066000823070F080911D01815080931D0108C07F
:10067000000007C0000005C0000003C0000001C06A
:10068000000089819A810F900F90DF91CF9108959A
:10069000CF93DF9300D0CDB7DEB79A83898389816A
:1006A0009A8181309105A1F0823091051CF4892B4B
:1006B00041F058C08230910549F1039709F444C0D4
:1006C00051C010921C0183E090E09A8389834DC051
:1006D00080915C01882321F483E090E09A838983F0
:1006E00080915C01882369F090911C0180911D012B
:1006F000981738F082E090E09A83898310921C0169
:1007000034C081E090E09A8389832FC080915C019E
:10071000882321F483E090E09A83898380915C01AF
:10072000882369F090911C0180911D01981738F081
:1007300081E090E09A83898310921C0116C082E0C8
:1007400090E09A83898311C080915C01882329F00D
:1007500081E090E09A83898308C083E090E09A83E7
:10076000898303C01A821982000089819A818130AD
:10077000910561F0823091051CF4892B01F120C0B4
:100780008230910561F0039791F01AC080E1809367
:100790001B0180911C018F5F80931C0111C010927E
:1007A0001B0180911C018F5F80931C0109C0109276
:1007B0001B0180911C018F5F80931C0101C0000010
:1007C00089819A810F900F90DF91CF910895CF93F7
:1007D000DF9300D0CDB7DEB79A83898389819A8170
:1007E000009719F0019731F00AC081E090E09A83F8
:1007F000898308C081E090E09A83898303C01A82CC
:100800001982000089819A81009781F0019709F08F
:100810000EC085E290E030915B0120915D01322BAA
:1008200020911B01232BFC01208301C00000898142
:100830009A810F900F90DF91CF910895CF93DF931E
:100840001F92CDB7DEB781E290E0FC01108282E218
:1008500090E02FEFFC01208384E290E02FEFFC0179
:10086000208385E290E0FC01108210921C0181E05F
:1008700080931D0119828981282F30E0C901880FDA
:10088000991F820F931F880F991F880F991F825EEF
:100890009E4FFC01118210828981282F30E0C9010E
:1008A000880F991F820F931F880F991F880F991F18
:1008B0009C01205E3E4F88EE93E0A0E0B0E0F9019D
:1008C00080839183A283B3838981682F70E08981BB
:1008D000282F30E0C901880F991F820F931F880FBE
:1008E000991F880F991F805E9E4FFC0120813181E6
:1008F00042815381CB01880F991F860F971F880F64
:10090000991F880F991F8C5D9E4FFC0120833183B6
:10091000428353838981282F30E0C901880F991FB2
:10092000820F931F880F991F880F991F885D9E4F14
:100930002AE632E0FC013183208389818F5F89833D
:100940008981282F30E0C901880F991F820F931FDA
:10095000880F991F880F991F825E9E4FFC0111829C
:1009600010828981282F30E0C901880F991F820FDA
:10097000931F880F991F880F991F9C01205E3E4F7F
:100980008CE291E0A0E0B0E0F90180839183A28342
:10099000B3838981682F70E08981282F30E0C901F5
:1009A000880F991F820F931F880F991F880F991F17
:1009B000805E9E4FFC012081318142815381CB01B9
:1009C000880F991F860F971F880F991F880F991FEF
:1009D0008C5D9E4FFC012083318342835383898148
:1009E000282F30E0C901880F991F820F931F880FAD
:1009F000991F880F991F885D9E4F23E232E0FC010A
:100A00003183208389818F5F89838981282F30E01A
:100A1000C901880F991F820F931F880F991F880F94
:100A2000991F825E9E4FFC01118210828981282FBE
:100A300030E0C901880F991F820F931F880F991FFB
:100A4000880F991F9C01205E3E4F81E090E0A0E05E
:100A5000B0E0F90180839183A283B3838981682FF9
:100A600070E08981282F30E0C901880F991F820F1B
:100A7000931F880F991F880F991F805E9E4FFC015E
:100A80002081318142815381CB01880F991F860FCC
:100A9000971F880F991F880F991F8C5D9E4FFC012F
:100AA00020833183428353838981282F30E0C90119
:100AB000880F991F820F931F880F991F880F991F06
:100AC000885D9E4F28E433E0FC01318320838981D7
:100AD0008F5F89838981282F30E0C901880F991F92
:100AE000820F931F880F991F880F991F825E9E4F58
:100AF000FC01118210828981282F30E0C901880F02
:100B0000991F820F931F880F991F880F991F9C01AF
:100B1000205E3E4F81E090E0A0E0B0E0F9018083EC
:100B20009183A283B3838981682F70E08981282F04
:100B300030E0C901880F991F820F931F880F991FFA
:100B4000880F991F805E9E4FFC0120813181428178
:100B50005381CB01880F991F860F971F880F991F0C
:100B6000880F991F8C5D9E4FFC0120833183428347
:100B700053838981282F30E0C901880F991F820F84
:100B8000931F880F991F880F991F885D9E4F28E437
:100B900033E0FC013183208389818F5F89838981E0
:100BA000282F30E0C901880F991F820F931F880FEB
:100BB000991F880F991F825E9E4FFC01118210823F
:100BC0008981282F30E0C901880F991F820F931F58
:100BD000880F991F880F991F9C01205E3E4F81E06E
:100BE00090E0A0E0B0E0F90180839183A283B38319
:100BF0008981682F70E08981282F30E0C901880F32
:100C0000991F820F931F880F991F880F991F805E6D
:100C10009E4FFC012081318142815381CB01880F9D
:100C2000991F860F971F880F991F880F991F8C5D3A
:100C30009E4FFC0120833183428353838981282F77
:100C400030E0C901880F991F820F931F880F991FE9
:100C5000880F991F885D9E4F27EE33E0FC0131839A
:100C6000208381E090E0CC01A0E0B0E0BC01CD01A8
:100C70000E94F5010E94900080E290E0FC018081DA
:100C80008095877080935A0180915A018695869548
:0A0C900080935C01F1CFF894FFCFD0
:100C9A0000000002000000006700000000000100E0
:060CAA000000050001003E
:00000001FF
