:100000000C9446000C9465000C9465000C946500FB
:100010000C9465000C9465000C9465000C946500CC
:100020000C9465000C9465000C9465000C946500BC
:100030000C9465000C9493010C9465000C9465007D
:100040000C9465000C9465000C9465000C9465009C
:100050000C9465000C9465000C9465000C9465008C
:100060000C9465000C9465000C9465000C9465007C
:100070000C9465000C9465000C9465000C9465006C
:100080000C9465000C9465000C94650011241FBE4F
:10009000CFEFD0E4DEBFCDBF11E0A0E0B1E0EEEEE7
:1000A000FAE000E00BBF02C007900D92A631B10745
:1000B000D9F721E0A6E1B1E001C01D92A235B20757
:1000C000E1F70E94B2030C9475050C940000CF93E5
:1000D000DF9300D01F92CDB7DEB789837B836A831D
:1000E00089818A3031F48A819B81BC018DE00E9434
:1000F000670080EC90E0FC018081882F90E08072A6
:100100009927892BB1F386EC90E02981FC012083AB
:1001100080E090E00F900F900F90DF91CF910895C5
:10012000CF93DF93CDB7DEB781E890E02BE0FC0101
:10013000208388E890E02DE730E0FC0131832083C4
:100140008FE690E022E0FC01208384E890E0FC014F
:100150001182108280910E0190910F01A0911001E7
:10016000B09111018093170190931801A093190188
:10017000B0931A018FE590E02FE530E0F90120817E
:100180002068FC0120830000DF91CF910895CF9378
:10019000DF93CDB7DEB781E890E0FC01108200006C
:1001A000DF91CF9108950F931F93CF93DF931F9209
:1001B000CDB7DEB71982A7C08981282F30E0C901E9
:1001C000880F991F820F931F880F991F880F991FFF
:1001D0008C5D9E4FFC012081318142815381898158
:1001E000682F70E0CB01880F991F860F971F880F2B
:1001F000991F880F991F805E9E4FFC01808191811D
:10020000A281B381281739074A075B0708F449C060
:100210008981082F10E08981282F30E0C901880FDB
:10022000991F820F931F880F991F880F991F885D50
:100230009E4FFC01408151818981282F30E0C90106
:10024000880F991F820F931F880F991F880F991F7E
:10025000825E9E4FFC0180819181FA0109959C018B
:10026000C801880F991F800F911F880F991F880F51
:10027000991F825E9E4FFC01318320838981282F44
:1002800030E0C901880F991F820F931F880F991FB3
:10029000880F991F8C5D9E4FFC0110821182128283
:1002A00013828981682F70E08981282F30E0C9018D
:1002B000880F991F820F931F880F991F880F991F0E
:1002C0008C5D9E4FFC01208131814281538182E00F
:1002D00090E0CC01A0E0B0E0280F391F4A1F5B1F5F
:1002E000CB01880F991F860F971F880F991F880FC2
:1002F000991F8C5D9E4FFC01208331834283538381
:1003000089818F5F89838981282F30E084E090E0A4
:100310002817390708F450CF00000F90DF91CF91D4
:100320001F910F9108951F920F9200905F000F92FE
:10033000112400905B000F922F933F934F935F9394
:100340006F937F938F939F93AF93BF93EF93FF939D
:10035000CF93DF93CDB7DEB780911701909118014D
:10036000A0911901B0911A010197A109B1098093D7
:10037000170190931801A0931901B0931A0180916D
:10038000170190911801A0911901B0911A01892BC0
:100390008A2B8B2B91F40E94D30080910E019091B7
:1003A0000F01A0911001B09111018093170190935A
:1003B0001801A0931901B0931A010000DF91CF91A9
:1003C000FF91EF91BF91AF919F918F917F916F912D
:1003D0005F914F913F912F910F9000925B000F9092
:1003E00000925F000F901F901895CF93DF9300D07D
:1003F00000D0CDB7DEB769837A838B839C838981F4
:100400009A81AB81BC8180930E0190930F01A093E0
:100410001001B093110180910E0190910F01A091F4
:100420001001B09111018093170190931801A093CE
:100430001901B0931A0100000F900F900F900F90C8
:10044000DF91CF910895CF93DF9300D0CDB7DEB782
:100450009A83898389819A81009719F0019749F0DD
:100460000DC081E090E09A83898381E080934F0101
:1004700008C081E090E09A83898303C01A821982C0
:10048000000089819A810097D9F0019709F01BC07B
:1004900080914F01813021F482E080934F0112C09E
:1004A00080914F01823021F484E080934F010AC093
:1004B00080914F01843031F481E080934F0102C07C
:1004C000000001C0000089819A810F900F90DF9198
:1004D000CF910895CF93DF9300D0CDB7DEB79A8345
:1004E000898389819A81009719F0019741F00CC0A6
:1004F0001092510181E090E09A83898305C081E0E8
:1005000090E09A838983000089819A81009771F035
:10051000019709F00CC080915101882321F488E0F3
:100520008093510104C01092510101C000008981E3
:100530009A810F900F90DF91CF910895CF93DF9321
:1005400000D0CDB7DEB79A83898389819A818130C3
:10055000910589F0823091051CF4892B39F045C052
:1005600082309105B1F0039751F13FC081E090E0F6
:100570009A8389833DC080915001882329F082E0CD
:1005800090E09A83898334C081E090E09A838983E4
:100590002FC080915001882321F481E090E09A835C
:1005A000898380915001882329F083E090E09A8329
:1005B00089831EC082E090E09A83898319C080916C
:1005C0005001882321F481E090E09A83898380910F
:1005D0005001882329F082E090E09A83898308C043
:1005E00083E090E09A83898303C01A821982000015
:1005F00089819A818130910579F08230910524F4C6
:10060000892B09F470C070C08230910509F464C070
:10061000039709F465C068C080914E01882F90E06F
:1006200083709927029739F58091380190913901AB
:10063000A0913A01B0913B010196A11DB11D80939B
:10064000380190933901A0933A01B0933B01809116
:10065000440190914501A0914601B0914701019656
:10066000A11DB11D8093440190934501A0934601C3
:10067000B09347012EC080914E01882F90E0837087
:100680009927019731F58091380190913901A09116
:100690003A01B0913B010197A109B109809338015A
:1006A00090933901A0933A01B0933B0180914401AA
:1006B00090914501A0914601B09147010197A10990
:1006C000B1098093440190934501A0934601B093F2
:1006D000470110921B0108C080E180931B0104C0F8
:1006E00010921B0101C0000089819A810F900F9028
:1006F000DF91CF910895CF93DF9300D0CDB7DEB7D0
:100700009A83898389819A81009719F0019731F042
:100710000AC081E090E09A83898308C081E090E07C
:100720009A83898303C01A821982000089819A8181
:10073000009781F0019709F00EC085E290E03091BA
:100740004F0120915101322B20911B01232BFC01E1
:10075000208301C0000089819A810F900F90DF9162
:10076000CF910895CF93DF931F92CDB7DEB781E28B
:1007700090E0FC01108282E290E02FEFFC012083E8
:1007800084E290E02FEFFC01208385E290E0FC0101
:10079000108219828981282F30E0C901880F991FA2
:1007A000820F931F880F991F880F991F825E9E4F9B
:1007B000FC01118210828981282F30E0C901880F45
:1007C000991F820F931F880F991F880F991F9C01F3
:1007D000205E3E4F88EE93E0A0E0B0E0F901808318
:1007E0009183A283B3838981682F70E08981282F48
:1007F00030E0C901880F991F820F931F880F991F3E
:10080000880F991F805E9E4FFC01208131814281BB
:100810005381CB01880F991F860F971F880F991F4F
:10082000880F991F8C5D9E4FFC012083318342838A
:1008300053838981282F30E0C901880F991F820FC7
:10084000931F880F991F880F991F885D9E4F2AE676
:1008500032E0FC013183208389818F5F8983898124
:10086000282F30E0C901880F991F820F931F880F2E
:10087000991F880F991F825E9E4FFC011182108282
:100880008981282F30E0C901880F991F820F931F9B
:10089000880F991F880F991F9C01205E3E4F8CE2A4
:1008A00091E0A0E0B0E0F90180839183A283B3835B
:1008B0008981682F70E08981282F30E0C901880F75
:1008C000991F820F931F880F991F880F991F805EB1
:1008D0009E4FFC012081318142815381CB01880FE1
:1008E000991F860F971F880F991F880F991F8C5D7E
:1008F0009E4FFC0120833183428353838981282FBB
:1009000030E0C901880F991F820F931F880F991F2C
:10091000880F991F885D9E4F23E232E0FC013183EE
:10092000208389818F5F89838981282F30E0C901E5
:10093000880F991F820F931F880F991F880F991F87
:10094000825E9E4FFC01118210828981282F30E047
:10095000C901880F991F820F931F880F991F880F55
:10096000991F9C01205E3E4F81E090E0A0E0B0E046
:10097000F90180839183A283B3838981682F70E01A
:100980008981282F30E0C901880F991F820F931F9A
:10099000880F991F880F991F805E9E4FFC01208150
:1009A000318142815381CB01880F991F860F971F98
:1009B000880F991F880F991F8C5D9E4FFC01208323
:1009C0003183428353838981282F30E0C901880F06
:1009D000991F820F931F880F991F880F991F885D99
:1009E0009E4F2EE932E0FC013183208389818F5FA5
:1009F00089838981282F30E0C901880F991F820FD0
:100A0000931F880F991F880F991F825E9E4FFC01CC
:100A1000118210828981282F30E0C901880F991F27
:100A2000820F931F880F991F880F991F9C01205ECA
:100A30003E4F81E090E0A0E0B0E0F9018083918337
:100A4000A283B3838981682F70E08981282F30E0E9
:100A5000C901880F991F820F931F880F991F880F54
:100A6000991F805E9E4FFC0120813181428153811C
:100A7000CB01880F991F860F971F880F991F880F2A
:100A8000991F8C5D9E4FFC012083318342835383E9
:100A90008981282F30E0C901880F991F820F931F89
:100AA000880F991F880F991F885D9E4F2BE733E0B1
:100AB000FC013183208382E090E0CC01A0E0B0E033
:100AC000BC01CD010E94F5010E94900080E290E0FF
:100AD000FC0180818095877180934E0180914E0149
:0E0AE0008695869580935001F1CFF894FFCF54
:100AEE00000000020000000067000000000001008E
:060AFE00000004000200EC
:00000001FF
